{
  "_format": "hh-sol-artifact-1",
  "contractName": "LottoBar",
  "sourceName": "contracts/LottoBar.sol",
  "abi": [
    {
      "inputs": [
        {
          "internalType": "contract BarToken",
          "name": "_bar",
          "type": "address"
        },
        {
          "internalType": "address",
          "name": "mngr1",
          "type": "address"
        },
        {
          "internalType": "address",
          "name": "mngr2",
          "type": "address"
        },
        {
          "internalType": "uint256",
          "name": "_ticketPrice",
          "type": "uint256"
        }
      ],
      "stateMutability": "nonpayable",
      "type": "constructor"
    },
    {
      "anonymous": false,
      "inputs": [
        {
          "indexed": true,
          "internalType": "bytes32",
          "name": "role",
          "type": "bytes32"
        },
        {
          "indexed": true,
          "internalType": "bytes32",
          "name": "previousAdminRole",
          "type": "bytes32"
        },
        {
          "indexed": true,
          "internalType": "bytes32",
          "name": "newAdminRole",
          "type": "bytes32"
        }
      ],
      "name": "RoleAdminChanged",
      "type": "event"
    },
    {
      "anonymous": false,
      "inputs": [
        {
          "indexed": true,
          "internalType": "bytes32",
          "name": "role",
          "type": "bytes32"
        },
        {
          "indexed": true,
          "internalType": "address",
          "name": "account",
          "type": "address"
        },
        {
          "indexed": true,
          "internalType": "address",
          "name": "sender",
          "type": "address"
        }
      ],
      "name": "RoleGranted",
      "type": "event"
    },
    {
      "anonymous": false,
      "inputs": [
        {
          "indexed": true,
          "internalType": "bytes32",
          "name": "role",
          "type": "bytes32"
        },
        {
          "indexed": true,
          "internalType": "address",
          "name": "account",
          "type": "address"
        },
        {
          "indexed": true,
          "internalType": "address",
          "name": "sender",
          "type": "address"
        }
      ],
      "name": "RoleRevoked",
      "type": "event"
    },
    {
      "inputs": [],
      "name": "DEFAULT_ADMIN_ROLE",
      "outputs": [
        {
          "internalType": "bytes32",
          "name": "",
          "type": "bytes32"
        }
      ],
      "stateMutability": "view",
      "type": "function"
    },
    {
      "inputs": [],
      "name": "MANAGER_ROLE",
      "outputs": [
        {
          "internalType": "bytes32",
          "name": "",
          "type": "bytes32"
        }
      ],
      "stateMutability": "view",
      "type": "function"
    },
    {
      "inputs": [],
      "name": "OWNER_ROLE",
      "outputs": [
        {
          "internalType": "bytes32",
          "name": "",
          "type": "bytes32"
        }
      ],
      "stateMutability": "view",
      "type": "function"
    },
    {
      "inputs": [
        {
          "internalType": "uint256",
          "name": "newTicketPrice",
          "type": "uint256"
        }
      ],
      "name": "adjustTicketPrice",
      "outputs": [],
      "stateMutability": "nonpayable",
      "type": "function"
    },
    {
      "inputs": [
        {
          "internalType": "uint256",
          "name": "_amount",
          "type": "uint256"
        }
      ],
      "name": "deposit",
      "outputs": [],
      "stateMutability": "nonpayable",
      "type": "function"
    },
    {
      "inputs": [],
      "name": "drawLotto",
      "outputs": [
        {
          "internalType": "uint256",
          "name": "",
          "type": "uint256"
        }
      ],
      "stateMutability": "nonpayable",
      "type": "function"
    },
    {
      "inputs": [
        {
          "internalType": "bytes32",
          "name": "role",
          "type": "bytes32"
        }
      ],
      "name": "getRoleAdmin",
      "outputs": [
        {
          "internalType": "bytes32",
          "name": "",
          "type": "bytes32"
        }
      ],
      "stateMutability": "view",
      "type": "function"
    },
    {
      "inputs": [
        {
          "internalType": "address",
          "name": "user",
          "type": "address"
        }
      ],
      "name": "getUserTickets",
      "outputs": [
        {
          "internalType": "uint256",
          "name": "",
          "type": "uint256"
        }
      ],
      "stateMutability": "view",
      "type": "function"
    },
    {
      "inputs": [
        {
          "internalType": "bytes32",
          "name": "role",
          "type": "bytes32"
        },
        {
          "internalType": "address",
          "name": "account",
          "type": "address"
        }
      ],
      "name": "grantRole",
      "outputs": [],
      "stateMutability": "nonpayable",
      "type": "function"
    },
    {
      "inputs": [
        {
          "internalType": "bytes32",
          "name": "role",
          "type": "bytes32"
        },
        {
          "internalType": "address",
          "name": "account",
          "type": "address"
        }
      ],
      "name": "hasRole",
      "outputs": [
        {
          "internalType": "bool",
          "name": "",
          "type": "bool"
        }
      ],
      "stateMutability": "view",
      "type": "function"
    },
    {
      "inputs": [],
      "name": "lastDrawTime",
      "outputs": [
        {
          "internalType": "uint256",
          "name": "",
          "type": "uint256"
        }
      ],
      "stateMutability": "view",
      "type": "function"
    },
    {
      "inputs": [],
      "name": "name",
      "outputs": [
        {
          "internalType": "string",
          "name": "",
          "type": "string"
        }
      ],
      "stateMutability": "view",
      "type": "function"
    },
    {
      "inputs": [],
      "name": "owner",
      "outputs": [
        {
          "internalType": "address",
          "name": "",
          "type": "address"
        }
      ],
      "stateMutability": "view",
      "type": "function"
    },
    {
      "inputs": [],
      "name": "pool",
      "outputs": [
        {
          "internalType": "uint256",
          "name": "",
          "type": "uint256"
        }
      ],
      "stateMutability": "view",
      "type": "function"
    },
    {
      "inputs": [
        {
          "internalType": "bytes32",
          "name": "role",
          "type": "bytes32"
        },
        {
          "internalType": "address",
          "name": "account",
          "type": "address"
        }
      ],
      "name": "renounceRole",
      "outputs": [],
      "stateMutability": "nonpayable",
      "type": "function"
    },
    {
      "inputs": [
        {
          "internalType": "bytes32",
          "name": "role",
          "type": "bytes32"
        },
        {
          "internalType": "address",
          "name": "account",
          "type": "address"
        }
      ],
      "name": "revokeRole",
      "outputs": [],
      "stateMutability": "nonpayable",
      "type": "function"
    },
    {
      "inputs": [
        {
          "internalType": "bytes4",
          "name": "interfaceId",
          "type": "bytes4"
        }
      ],
      "name": "supportsInterface",
      "outputs": [
        {
          "internalType": "bool",
          "name": "",
          "type": "bool"
        }
      ],
      "stateMutability": "view",
      "type": "function"
    },
    {
      "inputs": [],
      "name": "ticketPrice",
      "outputs": [
        {
          "internalType": "uint256",
          "name": "",
          "type": "uint256"
        }
      ],
      "stateMutability": "view",
      "type": "function"
    },
    {
      "inputs": [
        {
          "internalType": "address",
          "name": "",
          "type": "address"
        }
      ],
      "name": "userTickets",
      "outputs": [
        {
          "internalType": "uint256",
          "name": "",
          "type": "uint256"
        }
      ],
      "stateMutability": "view",
      "type": "function"
    },
    {
      "inputs": [],
      "name": "winner",
      "outputs": [
        {
          "internalType": "address",
          "name": "",
          "type": "address"
        }
      ],
      "stateMutability": "view",
      "type": "function"
    },
    {
      "inputs": [],
      "name": "winningTickets",
      "outputs": [
        {
          "internalType": "uint256",
          "name": "",
          "type": "uint256"
        }
      ],
      "stateMutability": "view",
      "type": "function"
    }
  ],
  "bytecode": "0x60806040526040518060400160405280600881526020017f4c6f74746f42617200000000000000000000000000000000000000000000000081525060019080519060200190620000519291906200032e565b503480156200005f57600080fd5b50604051620020ce380380620020ce833981810160405281019062000085919062000423565b620000b77fb19546dff01e856fb3f010c267a7b1c60363cf8a4664e21cc89c26224620214e33620001b560201b60201c565b620000e97f241ecf16d79d0f8dbfb92cbc07fe17840425976cf0667f022fe9877caa831b0884620001b560201b60201c565b6200011b7f241ecf16d79d0f8dbfb92cbc07fe17840425976cf0667f022fe9877caa831b0883620001b560201b60201c565b33600260006101000a81548173ffffffffffffffffffffffffffffffffffffffff021916908373ffffffffffffffffffffffffffffffffffffffff16021790555083600b60006101000a81548173ffffffffffffffffffffffffffffffffffffffff021916908373ffffffffffffffffffffffffffffffffffffffff16021790555042600981905550806003819055505050505062000594565b620001c78282620001cb60201b60201c565b5050565b620001dd8282620002bc60201b60201c565b620002b857600160008084815260200190815260200160002060000160008373ffffffffffffffffffffffffffffffffffffffff1673ffffffffffffffffffffffffffffffffffffffff16815260200190815260200160002060006101000a81548160ff0219169083151502179055506200025d6200032660201b60201c565b73ffffffffffffffffffffffffffffffffffffffff168173ffffffffffffffffffffffffffffffffffffffff16837f2f8788117e7eff1d82e926ec794901d17c78024a50270940304540a733656f0d60405160405180910390a45b5050565b600080600084815260200190815260200160002060000160008373ffffffffffffffffffffffffffffffffffffffff1673ffffffffffffffffffffffffffffffffffffffff16815260200190815260200160002060009054906101000a900460ff16905092915050565b600033905090565b8280546200033c90620004e1565b90600052602060002090601f016020900481019282620003605760008555620003ac565b82601f106200037b57805160ff1916838001178555620003ac565b82800160010185558215620003ac579182015b82811115620003ab5782518255916020019190600101906200038e565b5b509050620003bb9190620003bf565b5090565b5b80821115620003da576000816000905550600101620003c0565b5090565b600081519050620003ef8162000546565b92915050565b600081519050620004068162000560565b92915050565b6000815190506200041d816200057a565b92915050565b600080600080608085870312156200043a57600080fd5b60006200044a87828801620003f5565b94505060206200045d87828801620003de565b93505060406200047087828801620003de565b925050606062000483878288016200040c565b91505092959194509250565b60006200049c82620004b7565b9050919050565b6000620004b0826200048f565b9050919050565b600073ffffffffffffffffffffffffffffffffffffffff82169050919050565b6000819050919050565b60006002820490506001821680620004fa57607f821691505b6020821081141562000511576200051062000517565b5b50919050565b7f4e487b7100000000000000000000000000000000000000000000000000000000600052602260045260246000fd5b62000551816200048f565b81146200055d57600080fd5b50565b6200056b81620004a3565b81146200057757600080fd5b50565b6200058581620004d7565b81146200059157600080fd5b50565b611b2a80620005a46000396000f3fe608060405234801561001057600080fd5b50600436106101375760003560e01c80635c74b43b116100b8578063a217fddf1161007c578063a217fddf14610352578063b6b55f2514610370578063d547741f1461038c578063dfbf53ae146103a8578063e58378bb146103c6578063ec87621c146103e457610137565b80635c74b43b1461029a5780635cbbd635146102b657806380017f4e146102d45780638da5cb5b1461030457806391d148541461032257610137565b8063248a9ca3116100ff578063248a9ca3146101f657806327cb1d64146102265780632f2ff15d1461024457806336568abe1461026057806347e0d54a1461027c57610137565b806301ffc9a71461013c5780630484a22f1461016c57806306fdde031461019c5780631209b1f6146101ba57806316f0115b146101d8575b600080fd5b61015660048036038101906101519190611340565b610402565b60405161016391906115bf565b60405180910390f35b61018660048036038101906101819190611289565b61047c565b6040516101939190611697565b60405180910390f35b6101a4610588565b6040516101b191906115f5565b60405180910390f35b6101c2610616565b6040516101cf9190611697565b60405180910390f35b6101e061061c565b6040516101ed9190611697565b60405180910390f35b610210600480360381019061020b91906112db565b610622565b60405161021d91906115da565b60405180910390f35b61022e610641565b60405161023b9190611697565b60405180910390f35b61025e60048036038101906102599190611304565b6107ce565b005b61027a60048036038101906102759190611304565b6107f7565b005b61028461087a565b6040516102919190611697565b60405180910390f35b6102b460048036038101906102af9190611369565b610880565b005b6102be6108f3565b6040516102cb9190611697565b60405180910390f35b6102ee60048036038101906102e99190611289565b6108f9565b6040516102fb9190611697565b60405180910390f35b61030c610911565b6040516103199190611544565b60405180910390f35b61033c60048036038101906103379190611304565b610937565b60405161034991906115bf565b60405180910390f35b61035a6109a1565b60405161036791906115da565b60405180910390f35b61038a60048036038101906103859190611369565b6109a8565b005b6103a660048036038101906103a19190611304565b610bbf565b005b6103b0610be8565b6040516103bd9190611544565b60405180910390f35b6103ce610c0e565b6040516103db91906115da565b60405180910390f35b6103ec610c32565b6040516103f991906115da565b60405180910390f35b60007f7965db0b000000000000000000000000000000000000000000000000000000007bffffffffffffffffffffffffffffffffffffffffffffffffffffffff1916827bffffffffffffffffffffffffffffffffffffffffffffffffffffffff19161480610475575061047482610c56565b5b9050919050565b6000600260009054906101000a900473ffffffffffffffffffffffffffffffffffffffff1673ffffffffffffffffffffffffffffffffffffffff163373ffffffffffffffffffffffffffffffffffffffff16146104d857600080fd5b6105027fb19546dff01e856fb3f010c267a7b1c60363cf8a4664e21cc89c26224620214e33610937565b610541576040517f08c379a000000000000000000000000000000000000000000000000000000000815260040161053890611677565b60405180910390fd5b600860008373ffffffffffffffffffffffffffffffffffffffff1673ffffffffffffffffffffffffffffffffffffffff168152602001908152602001600020549050919050565b6001805461059590611895565b80601f01602080910402602001604051908101604052809291908181526020018280546105c190611895565b801561060e5780601f106105e35761010080835404028352916020019161060e565b820191906000526020600020905b8154815290600101906020018083116105f157829003601f168201915b505050505081565b60035481565b60045481565b6000806000838152602001908152602001600020600101549050919050565b600061066d7f241ecf16d79d0f8dbfb92cbc07fe17840425976cf0667f022fe9877caa831b0833610937565b8061069e575061069d7fb19546dff01e856fb3f010c267a7b1c60363cf8a4664e21cc89c26224620214e33610937565b5b6106dd576040517f08c379a00000000000000000000000000000000000000000000000000000000081526004016106d490611617565b60405180910390fd5b600b60009054906101000a900473ffffffffffffffffffffffffffffffffffffffff1673ffffffffffffffffffffffffffffffffffffffff1663095ea7b3600560009054906101000a900473ffffffffffffffffffffffffffffffffffffffff166004546040518363ffffffff1660e01b815260040161075e929190611596565b602060405180830381600087803b15801561077857600080fd5b505af115801561078c573d6000803e3d6000fd5b505050506040513d601f19601f820116820180604052508101906107b091906112b2565b50600060045490506000600481905550426009819055508091505090565b6107d782610622565b6107e8816107e3610cc0565b610cc8565b6107f28383610d65565b505050565b6107ff610cc0565b73ffffffffffffffffffffffffffffffffffffffff168173ffffffffffffffffffffffffffffffffffffffff161461086c576040517f08c379a000000000000000000000000000000000000000000000000000000000815260040161086390611657565b60405180910390fd5b6108768282610e45565b5050565b60065481565b6108aa7fb19546dff01e856fb3f010c267a7b1c60363cf8a4664e21cc89c26224620214e33610937565b6108e9576040517f08c379a00000000000000000000000000000000000000000000000000000000081526004016108e090611677565b60405180910390fd5b8060038190555050565b60095481565b60086020528060005260406000206000915090505481565b600260009054906101000a900473ffffffffffffffffffffffffffffffffffffffff1681565b600080600084815260200190815260200160002060000160008373ffffffffffffffffffffffffffffffffffffffff1673ffffffffffffffffffffffffffffffffffffffff16815260200190815260200160002060009054906101000a900460ff16905092915050565b6000801b81565b600260009054906101000a900473ffffffffffffffffffffffffffffffffffffffff1673ffffffffffffffffffffffffffffffffffffffff163373ffffffffffffffffffffffffffffffffffffffff1614610a0257600080fd5b60008111610a0f57600080fd5b600b60009054906101000a900473ffffffffffffffffffffffffffffffffffffffff1673ffffffffffffffffffffffffffffffffffffffff166323b872dd3330846040518463ffffffff1660e01b8152600401610a6e9392919061155f565b602060405180830381600087803b158015610a8857600080fd5b505af1158015610a9c573d6000803e3d6000fd5b505050506040513d601f19601f82011682018060405250810190610ac091906112b2565b5061271061251c82610ad29190611760565b610adc919061172f565b600454610ae991906116d9565b6004819055506127106101f482610b009190611760565b610b0a919061172f565b600754610b1791906116d9565b600781905550600060035482610b2d919061172f565b905080600860003373ffffffffffffffffffffffffffffffffffffffff1673ffffffffffffffffffffffffffffffffffffffff168152602001908152602001600020819055508060068190555033600560006101000a81548173ffffffffffffffffffffffffffffffffffffffff021916908373ffffffffffffffffffffffffffffffffffffffff1602179055505050565b610bc882610622565b610bd981610bd4610cc0565b610cc8565b610be38383610e45565b505050565b600560009054906101000a900473ffffffffffffffffffffffffffffffffffffffff1681565b7fb19546dff01e856fb3f010c267a7b1c60363cf8a4664e21cc89c26224620214e81565b7f241ecf16d79d0f8dbfb92cbc07fe17840425976cf0667f022fe9877caa831b0881565b60007f01ffc9a7000000000000000000000000000000000000000000000000000000007bffffffffffffffffffffffffffffffffffffffffffffffffffffffff1916827bffffffffffffffffffffffffffffffffffffffffffffffffffffffff1916149050919050565b600033905090565b610cd28282610937565b610d6157610cf78173ffffffffffffffffffffffffffffffffffffffff166014610f26565b610d058360001c6020610f26565b604051602001610d1692919061150a565b6040516020818303038152906040526040517f08c379a0000000000000000000000000000000000000000000000000000000008152600401610d5891906115f5565b60405180910390fd5b5050565b610d6f8282610937565b610e4157600160008084815260200190815260200160002060000160008373ffffffffffffffffffffffffffffffffffffffff1673ffffffffffffffffffffffffffffffffffffffff16815260200190815260200160002060006101000a81548160ff021916908315150217905550610de6610cc0565b73ffffffffffffffffffffffffffffffffffffffff168173ffffffffffffffffffffffffffffffffffffffff16837f2f8788117e7eff1d82e926ec794901d17c78024a50270940304540a733656f0d60405160405180910390a45b5050565b610e4f8282610937565b15610f2257600080600084815260200190815260200160002060000160008373ffffffffffffffffffffffffffffffffffffffff1673ffffffffffffffffffffffffffffffffffffffff16815260200190815260200160002060006101000a81548160ff021916908315150217905550610ec7610cc0565b73ffffffffffffffffffffffffffffffffffffffff168173ffffffffffffffffffffffffffffffffffffffff16837ff6391f5c32d9c69d2a47ea670b442974b53935d1edc7fd64eb21e047a839171b60405160405180910390a45b5050565b606060006002836002610f399190611760565b610f4391906116d9565b67ffffffffffffffff811115610f82577f4e487b7100000000000000000000000000000000000000000000000000000000600052604160045260246000fd5b6040519080825280601f01601f191660200182016040528015610fb45781602001600182028036833780820191505090505b5090507f300000000000000000000000000000000000000000000000000000000000000081600081518110611012577f4e487b7100000000000000000000000000000000000000000000000000000000600052603260045260246000fd5b60200101907effffffffffffffffffffffffffffffffffffffffffffffffffffffffffffff1916908160001a9053507f78000000000000000000000000000000000000000000000000000000000000008160018151811061109c577f4e487b7100000000000000000000000000000000000000000000000000000000600052603260045260246000fd5b60200101907effffffffffffffffffffffffffffffffffffffffffffffffffffffffffffff1916908160001a905350600060018460026110dc9190611760565b6110e691906116d9565b90505b60018111156111d2577f3031323334353637383961626364656600000000000000000000000000000000600f86166010811061114e577f4e487b7100000000000000000000000000000000000000000000000000000000600052603260045260246000fd5b1a60f81b82828151811061118b577f4e487b7100000000000000000000000000000000000000000000000000000000600052603260045260246000fd5b60200101907effffffffffffffffffffffffffffffffffffffffffffffffffffffffffffff1916908160001a905350600485901c9450806111cb9061186b565b90506110e9565b5060008414611216576040517f08c379a000000000000000000000000000000000000000000000000000000000815260040161120d90611637565b60405180910390fd5b8091505092915050565b60008135905061122f81611a81565b92915050565b60008151905061124481611a98565b92915050565b60008135905061125981611aaf565b92915050565b60008135905061126e81611ac6565b92915050565b60008135905061128381611add565b92915050565b60006020828403121561129b57600080fd5b60006112a984828501611220565b91505092915050565b6000602082840312156112c457600080fd5b60006112d284828501611235565b91505092915050565b6000602082840312156112ed57600080fd5b60006112fb8482850161124a565b91505092915050565b6000806040838503121561131757600080fd5b60006113258582860161124a565b925050602061133685828601611220565b9150509250929050565b60006020828403121561135257600080fd5b60006113608482850161125f565b91505092915050565b60006020828403121561137b57600080fd5b600061138984828501611274565b91505092915050565b61139b816117ba565b82525050565b6113aa816117cc565b82525050565b6113b9816117d8565b82525050565b60006113ca826116b2565b6113d481856116bd565b93506113e4818560208601611838565b6113ed81611954565b840191505092915050565b6000611403826116b2565b61140d81856116ce565b935061141d818560208601611838565b80840191505092915050565b6000611436601e836116bd565b915061144182611965565b602082019050919050565b60006114596020836116bd565b91506114648261198e565b602082019050919050565b600061147c6017836116ce565b9150611487826119b7565b601782019050919050565b600061149f6011836116ce565b91506114aa826119e0565b601182019050919050565b60006114c2602f836116bd565b91506114cd82611a09565b604082019050919050565b60006114e56016836116bd565b91506114f082611a58565b602082019050919050565b6115048161182e565b82525050565b60006115158261146f565b915061152182856113f8565b915061152c82611492565b915061153882846113f8565b91508190509392505050565b60006020820190506115596000830184611392565b92915050565b60006060820190506115746000830186611392565b6115816020830185611392565b61158e60408301846114fb565b949350505050565b60006040820190506115ab6000830185611392565b6115b860208301846114fb565b9392505050565b60006020820190506115d460008301846113a1565b92915050565b60006020820190506115ef60008301846113b0565b92915050565b6000602082019050818103600083015261160f81846113bf565b905092915050565b6000602082019050818103600083015261163081611429565b9050919050565b600060208201905081810360008301526116508161144c565b9050919050565b60006020820190508181036000830152611670816114b5565b9050919050565b60006020820190508181036000830152611690816114d8565b9050919050565b60006020820190506116ac60008301846114fb565b92915050565b600081519050919050565b600082825260208201905092915050565b600081905092915050565b60006116e48261182e565b91506116ef8361182e565b9250827fffffffffffffffffffffffffffffffffffffffffffffffffffffffffffffffff03821115611724576117236118c7565b5b828201905092915050565b600061173a8261182e565b91506117458361182e565b925082611755576117546118f6565b5b828204905092915050565b600061176b8261182e565b91506117768361182e565b9250817fffffffffffffffffffffffffffffffffffffffffffffffffffffffffffffffff04831182151516156117af576117ae6118c7565b5b828202905092915050565b60006117c58261180e565b9050919050565b60008115159050919050565b6000819050919050565b60007fffffffff0000000000000000000000000000000000000000000000000000000082169050919050565b600073ffffffffffffffffffffffffffffffffffffffff82169050919050565b6000819050919050565b60005b8381101561185657808201518184015260208101905061183b565b83811115611865576000848401525b50505050565b60006118768261182e565b9150600082141561188a576118896118c7565b5b600182039050919050565b600060028204905060018216806118ad57607f821691505b602082108114156118c1576118c0611925565b5b50919050565b7f4e487b7100000000000000000000000000000000000000000000000000000000600052601160045260246000fd5b7f4e487b7100000000000000000000000000000000000000000000000000000000600052601260045260246000fd5b7f4e487b7100000000000000000000000000000000000000000000000000000000600052602260045260246000fd5b6000601f19601f8301169050919050565b7f43616c6c6572206973206e6f7420616e206f776e65722f6d616e616765720000600082015250565b7f537472696e67733a20686578206c656e67746820696e73756666696369656e74600082015250565b7f416363657373436f6e74726f6c3a206163636f756e7420000000000000000000600082015250565b7f206973206d697373696e6720726f6c6520000000000000000000000000000000600082015250565b7f416363657373436f6e74726f6c3a2063616e206f6e6c792072656e6f756e636560008201527f20726f6c657320666f722073656c660000000000000000000000000000000000602082015250565b7f43616c6c6572206973206e6f7420616e206f776e657200000000000000000000600082015250565b611a8a816117ba565b8114611a9557600080fd5b50565b611aa1816117cc565b8114611aac57600080fd5b50565b611ab8816117d8565b8114611ac357600080fd5b50565b611acf816117e2565b8114611ada57600080fd5b50565b611ae68161182e565b8114611af157600080fd5b5056fea2646970667358221220148f21967c31c20b77a1a1178bb76481d6c9733074ac83ef88529d64837db27a64736f6c63430008040033",
  "linkReferences": {},
  "deployedLinkReferences": {}
}