{
  "_format": "hh-sol-artifact-1",
  "contractName": "BarToken",
  "sourceName": "contracts/BarToken.sol",
  "abi": [
    {
      "inputs": [
        {
          "internalType": "address",
          "name": "owner",
          "type": "address"
        }
      ],
      "stateMutability": "nonpayable",
      "type": "constructor"
    },
    {
      "anonymous": false,
      "inputs": [
        {
          "indexed": true,
          "internalType": "address",
          "name": "owner",
          "type": "address"
        },
        {
          "indexed": true,
          "internalType": "address",
          "name": "spender",
          "type": "address"
        },
        {
          "indexed": false,
          "internalType": "uint256",
          "name": "value",
          "type": "uint256"
        }
      ],
      "name": "Approval",
      "type": "event"
    },
    {
      "anonymous": false,
      "inputs": [
        {
          "indexed": true,
          "internalType": "bytes32",
          "name": "role",
          "type": "bytes32"
        },
        {
          "indexed": true,
          "internalType": "bytes32",
          "name": "previousAdminRole",
          "type": "bytes32"
        },
        {
          "indexed": true,
          "internalType": "bytes32",
          "name": "newAdminRole",
          "type": "bytes32"
        }
      ],
      "name": "RoleAdminChanged",
      "type": "event"
    },
    {
      "anonymous": false,
      "inputs": [
        {
          "indexed": true,
          "internalType": "bytes32",
          "name": "role",
          "type": "bytes32"
        },
        {
          "indexed": true,
          "internalType": "address",
          "name": "account",
          "type": "address"
        },
        {
          "indexed": true,
          "internalType": "address",
          "name": "sender",
          "type": "address"
        }
      ],
      "name": "RoleGranted",
      "type": "event"
    },
    {
      "anonymous": false,
      "inputs": [
        {
          "indexed": true,
          "internalType": "bytes32",
          "name": "role",
          "type": "bytes32"
        },
        {
          "indexed": true,
          "internalType": "address",
          "name": "account",
          "type": "address"
        },
        {
          "indexed": true,
          "internalType": "address",
          "name": "sender",
          "type": "address"
        }
      ],
      "name": "RoleRevoked",
      "type": "event"
    },
    {
      "anonymous": false,
      "inputs": [
        {
          "indexed": true,
          "internalType": "address",
          "name": "from",
          "type": "address"
        },
        {
          "indexed": true,
          "internalType": "address",
          "name": "to",
          "type": "address"
        },
        {
          "indexed": false,
          "internalType": "uint256",
          "name": "value",
          "type": "uint256"
        }
      ],
      "name": "Transfer",
      "type": "event"
    },
    {
      "inputs": [],
      "name": "DEFAULT_ADMIN_ROLE",
      "outputs": [
        {
          "internalType": "bytes32",
          "name": "",
          "type": "bytes32"
        }
      ],
      "stateMutability": "view",
      "type": "function"
    },
    {
      "inputs": [],
      "name": "MANAGER_ROLE",
      "outputs": [
        {
          "internalType": "bytes32",
          "name": "",
          "type": "bytes32"
        }
      ],
      "stateMutability": "view",
      "type": "function"
    },
    {
      "inputs": [],
      "name": "OWNER_ROLE",
      "outputs": [
        {
          "internalType": "bytes32",
          "name": "",
          "type": "bytes32"
        }
      ],
      "stateMutability": "view",
      "type": "function"
    },
    {
      "inputs": [
        {
          "internalType": "uint256",
          "name": "newTicketPrice",
          "type": "uint256"
        }
      ],
      "name": "adjustTicketPrice",
      "outputs": [],
      "stateMutability": "nonpayable",
      "type": "function"
    },
    {
      "inputs": [
        {
          "internalType": "address",
          "name": "owner",
          "type": "address"
        },
        {
          "internalType": "address",
          "name": "spender",
          "type": "address"
        }
      ],
      "name": "allowance",
      "outputs": [
        {
          "internalType": "uint256",
          "name": "",
          "type": "uint256"
        }
      ],
      "stateMutability": "view",
      "type": "function"
    },
    {
      "inputs": [
        {
          "internalType": "address",
          "name": "spender",
          "type": "address"
        },
        {
          "internalType": "uint256",
          "name": "amount",
          "type": "uint256"
        }
      ],
      "name": "approve",
      "outputs": [
        {
          "internalType": "bool",
          "name": "",
          "type": "bool"
        }
      ],
      "stateMutability": "nonpayable",
      "type": "function"
    },
    {
      "inputs": [
        {
          "internalType": "address",
          "name": "account",
          "type": "address"
        }
      ],
      "name": "balanceOf",
      "outputs": [
        {
          "internalType": "uint256",
          "name": "",
          "type": "uint256"
        }
      ],
      "stateMutability": "view",
      "type": "function"
    },
    {
      "inputs": [],
      "name": "decimals",
      "outputs": [
        {
          "internalType": "uint8",
          "name": "",
          "type": "uint8"
        }
      ],
      "stateMutability": "view",
      "type": "function"
    },
    {
      "inputs": [
        {
          "internalType": "address",
          "name": "spender",
          "type": "address"
        },
        {
          "internalType": "uint256",
          "name": "subtractedValue",
          "type": "uint256"
        }
      ],
      "name": "decreaseAllowance",
      "outputs": [
        {
          "internalType": "bool",
          "name": "",
          "type": "bool"
        }
      ],
      "stateMutability": "nonpayable",
      "type": "function"
    },
    {
      "inputs": [
        {
          "internalType": "bytes32",
          "name": "role",
          "type": "bytes32"
        }
      ],
      "name": "getRoleAdmin",
      "outputs": [
        {
          "internalType": "bytes32",
          "name": "",
          "type": "bytes32"
        }
      ],
      "stateMutability": "view",
      "type": "function"
    },
    {
      "inputs": [
        {
          "internalType": "bytes32",
          "name": "role",
          "type": "bytes32"
        },
        {
          "internalType": "address",
          "name": "account",
          "type": "address"
        }
      ],
      "name": "grantRole",
      "outputs": [],
      "stateMutability": "nonpayable",
      "type": "function"
    },
    {
      "inputs": [
        {
          "internalType": "bytes32",
          "name": "role",
          "type": "bytes32"
        },
        {
          "internalType": "address",
          "name": "account",
          "type": "address"
        }
      ],
      "name": "hasRole",
      "outputs": [
        {
          "internalType": "bool",
          "name": "",
          "type": "bool"
        }
      ],
      "stateMutability": "view",
      "type": "function"
    },
    {
      "inputs": [
        {
          "internalType": "address",
          "name": "spender",
          "type": "address"
        },
        {
          "internalType": "uint256",
          "name": "addedValue",
          "type": "uint256"
        }
      ],
      "name": "increaseAllowance",
      "outputs": [
        {
          "internalType": "bool",
          "name": "",
          "type": "bool"
        }
      ],
      "stateMutability": "nonpayable",
      "type": "function"
    },
    {
      "inputs": [
        {
          "internalType": "address",
          "name": "to",
          "type": "address"
        },
        {
          "internalType": "uint256",
          "name": "amount",
          "type": "uint256"
        }
      ],
      "name": "mint",
      "outputs": [],
      "stateMutability": "nonpayable",
      "type": "function"
    },
    {
      "inputs": [],
      "name": "name",
      "outputs": [
        {
          "internalType": "string",
          "name": "",
          "type": "string"
        }
      ],
      "stateMutability": "view",
      "type": "function"
    },
    {
      "inputs": [
        {
          "internalType": "bytes32",
          "name": "role",
          "type": "bytes32"
        },
        {
          "internalType": "address",
          "name": "account",
          "type": "address"
        }
      ],
      "name": "renounceRole",
      "outputs": [],
      "stateMutability": "nonpayable",
      "type": "function"
    },
    {
      "inputs": [
        {
          "internalType": "bytes32",
          "name": "role",
          "type": "bytes32"
        },
        {
          "internalType": "address",
          "name": "account",
          "type": "address"
        }
      ],
      "name": "revokeRole",
      "outputs": [],
      "stateMutability": "nonpayable",
      "type": "function"
    },
    {
      "inputs": [
        {
          "internalType": "bytes4",
          "name": "interfaceId",
          "type": "bytes4"
        }
      ],
      "name": "supportsInterface",
      "outputs": [
        {
          "internalType": "bool",
          "name": "",
          "type": "bool"
        }
      ],
      "stateMutability": "view",
      "type": "function"
    },
    {
      "inputs": [],
      "name": "symbol",
      "outputs": [
        {
          "internalType": "string",
          "name": "",
          "type": "string"
        }
      ],
      "stateMutability": "view",
      "type": "function"
    },
    {
      "inputs": [],
      "name": "totalSupply",
      "outputs": [
        {
          "internalType": "uint256",
          "name": "",
          "type": "uint256"
        }
      ],
      "stateMutability": "view",
      "type": "function"
    },
    {
      "inputs": [
        {
          "internalType": "address",
          "name": "recipient",
          "type": "address"
        },
        {
          "internalType": "uint256",
          "name": "amount",
          "type": "uint256"
        }
      ],
      "name": "transfer",
      "outputs": [
        {
          "internalType": "bool",
          "name": "",
          "type": "bool"
        }
      ],
      "stateMutability": "nonpayable",
      "type": "function"
    },
    {
      "inputs": [
        {
          "internalType": "address",
          "name": "sender",
          "type": "address"
        },
        {
          "internalType": "address",
          "name": "recipient",
          "type": "address"
        },
        {
          "internalType": "uint256",
          "name": "amount",
          "type": "uint256"
        }
      ],
      "name": "transferFrom",
      "outputs": [
        {
          "internalType": "bool",
          "name": "",
          "type": "bool"
        }
      ],
      "stateMutability": "nonpayable",
      "type": "function"
    }
  ],
  "bytecode": "0x608060405260006006553480156200001657600080fd5b50604051620028f8380380620028f883398181016040528101906200003c919062000357565b6040518060400160405280600881526020017f426172546f6b656e0000000000000000000000000000000000000000000000008152506040518060400160405280600381526020017f42415200000000000000000000000000000000000000000000000000000000008152508160039080519060200190620000c092919062000290565b508060049080519060200190620000d992919062000290565b5050506200010e7fb19546dff01e856fb3f010c267a7b1c60363cf8a4664e21cc89c26224620214e826200011560201b60201c565b5062000436565b6200012782826200012b60201b60201c565b5050565b6200013d82826200021d60201b60201c565b620002195760016005600084815260200190815260200160002060000160008373ffffffffffffffffffffffffffffffffffffffff1673ffffffffffffffffffffffffffffffffffffffff16815260200190815260200160002060006101000a81548160ff021916908315150217905550620001be6200028860201b60201c565b73ffffffffffffffffffffffffffffffffffffffff168173ffffffffffffffffffffffffffffffffffffffff16837f2f8788117e7eff1d82e926ec794901d17c78024a50270940304540a733656f0d60405160405180910390a45b5050565b60006005600084815260200190815260200160002060000160008373ffffffffffffffffffffffffffffffffffffffff1673ffffffffffffffffffffffffffffffffffffffff16815260200190815260200160002060009054906101000a900460ff16905092915050565b600033905090565b8280546200029e90620003b7565b90600052602060002090601f016020900481019282620002c257600085556200030e565b82601f10620002dd57805160ff19168380011785556200030e565b828001600101855582156200030e579182015b828111156200030d578251825591602001919060010190620002f0565b5b5090506200031d919062000321565b5090565b5b808211156200033c57600081600090555060010162000322565b5090565b60008151905062000351816200041c565b92915050565b6000602082840312156200036a57600080fd5b60006200037a8482850162000340565b91505092915050565b6000620003908262000397565b9050919050565b600073ffffffffffffffffffffffffffffffffffffffff82169050919050565b60006002820490506001821680620003d057607f821691505b60208210811415620003e757620003e6620003ed565b5b50919050565b7f4e487b7100000000000000000000000000000000000000000000000000000000600052602260045260246000fd5b620004278162000383565b81146200043357600080fd5b50565b6124b280620004466000396000f3fe608060405234801561001057600080fd5b50600436106101425760003560e01c80635c74b43b116100b8578063a457c2d71161007c578063a457c2d71461039d578063a9059cbb146103cd578063d547741f146103fd578063dd62ed3e14610419578063e58378bb14610449578063ec87621c1461046757610142565b80635c74b43b146102e557806370a082311461030157806391d148541461033157806395d89b4114610361578063a217fddf1461037f57610142565b8063248a9ca31161010a578063248a9ca3146102135780632f2ff15d14610243578063313ce5671461025f57806336568abe1461027d578063395093511461029957806340c10f19146102c957610142565b806301ffc9a71461014757806306fdde0314610177578063095ea7b31461019557806318160ddd146101c557806323b872dd146101e3575b600080fd5b610161600480360381019061015c9190611994565b610485565b60405161016e9190611c8d565b60405180910390f35b61017f6104ff565b60405161018c9190611cc3565b60405180910390f35b6101af60048036038101906101aa91906118f3565b610591565b6040516101bc9190611c8d565b60405180910390f35b6101cd6105af565b6040516101da9190611e45565b60405180910390f35b6101fd60048036038101906101f891906118a4565b6105b9565b60405161020a9190611c8d565b60405180910390f35b61022d6004803603810190610228919061192f565b6106b1565b60405161023a9190611ca8565b60405180910390f35b61025d60048036038101906102589190611958565b6106d1565b005b6102676106fa565b6040516102749190611e60565b60405180910390f35b61029760048036038101906102929190611958565b610703565b005b6102b360048036038101906102ae91906118f3565b610786565b6040516102c09190611c8d565b60405180910390f35b6102e360048036038101906102de91906118f3565b610832565b005b6102ff60048036038101906102fa91906119bd565b6108a9565b005b61031b6004803603810190610316919061183f565b61091c565b6040516103289190611e45565b60405180910390f35b61034b60048036038101906103469190611958565b610964565b6040516103589190611c8d565b60405180910390f35b6103696109cf565b6040516103769190611cc3565b60405180910390f35b610387610a61565b6040516103949190611ca8565b60405180910390f35b6103b760048036038101906103b291906118f3565b610a68565b6040516103c49190611c8d565b60405180910390f35b6103e760048036038101906103e291906118f3565b610b53565b6040516103f49190611c8d565b60405180910390f35b61041760048036038101906104129190611958565b610b71565b005b610433600480360381019061042e9190611868565b610b9a565b6040516104409190611e45565b60405180910390f35b610451610c21565b60405161045e9190611ca8565b60405180910390f35b61046f610c45565b60405161047c9190611ca8565b60405180910390f35b60007f7965db0b000000000000000000000000000000000000000000000000000000007bffffffffffffffffffffffffffffffffffffffffffffffffffffffff1916827bffffffffffffffffffffffffffffffffffffffffffffffffffffffff191614806104f857506104f782610c69565b5b9050919050565b60606003805461050e9061203a565b80601f016020809104026020016040519081016040528092919081815260200182805461053a9061203a565b80156105875780601f1061055c57610100808354040283529160200191610587565b820191906000526020600020905b81548152906001019060200180831161056a57829003601f168201915b5050505050905090565b60006105a561059e610cd3565b8484610cdb565b6001905092915050565b6000600254905090565b60006105c6848484610ea6565b6000600160008673ffffffffffffffffffffffffffffffffffffffff1673ffffffffffffffffffffffffffffffffffffffff1681526020019081526020016000206000610611610cd3565b73ffffffffffffffffffffffffffffffffffffffff1673ffffffffffffffffffffffffffffffffffffffff16815260200190815260200160002054905082811015610691576040517f08c379a000000000000000000000000000000000000000000000000000000000815260040161068890611d65565b60405180910390fd5b6106a58561069d610cd3565b858403610cdb565b60019150509392505050565b600060056000838152602001908152602001600020600101549050919050565b6106da826106b1565b6106eb816106e6610cd3565b611127565b6106f583836111c4565b505050565b60006012905090565b61070b610cd3565b73ffffffffffffffffffffffffffffffffffffffff168173ffffffffffffffffffffffffffffffffffffffff1614610778576040517f08c379a000000000000000000000000000000000000000000000000000000000815260040161076f90611de5565b60405180910390fd5b61078282826112a5565b5050565b6000610828610793610cd3565b8484600160006107a1610cd3565b73ffffffffffffffffffffffffffffffffffffffff1673ffffffffffffffffffffffffffffffffffffffff16815260200190815260200160002060008873ffffffffffffffffffffffffffffffffffffffff1673ffffffffffffffffffffffffffffffffffffffff168152602001908152602001600020546108239190611ea2565b610cdb565b6001905092915050565b61085c7fb19546dff01e856fb3f010c267a7b1c60363cf8a4664e21cc89c26224620214e33610964565b61089b576040517f08c379a000000000000000000000000000000000000000000000000000000000815260040161089290611e05565b60405180910390fd5b6108a58282611387565b5050565b6108d37fb19546dff01e856fb3f010c267a7b1c60363cf8a4664e21cc89c26224620214e33610964565b610912576040517f08c379a000000000000000000000000000000000000000000000000000000000815260040161090990611e05565b60405180910390fd5b8060068190555050565b60008060008373ffffffffffffffffffffffffffffffffffffffff1673ffffffffffffffffffffffffffffffffffffffff168152602001908152602001600020549050919050565b60006005600084815260200190815260200160002060000160008373ffffffffffffffffffffffffffffffffffffffff1673ffffffffffffffffffffffffffffffffffffffff16815260200190815260200160002060009054906101000a900460ff16905092915050565b6060600480546109de9061203a565b80601f0160208091040260200160405190810160405280929190818152602001828054610a0a9061203a565b8015610a575780601f10610a2c57610100808354040283529160200191610a57565b820191906000526020600020905b815481529060010190602001808311610a3a57829003601f168201915b5050505050905090565b6000801b81565b60008060016000610a77610cd3565b73ffffffffffffffffffffffffffffffffffffffff1673ffffffffffffffffffffffffffffffffffffffff16815260200190815260200160002060008573ffffffffffffffffffffffffffffffffffffffff1673ffffffffffffffffffffffffffffffffffffffff16815260200190815260200160002054905082811015610b34576040517f08c379a0000000000000000000000000000000000000000000000000000000008152600401610b2b90611dc5565b60405180910390fd5b610b48610b3f610cd3565b85858403610cdb565b600191505092915050565b6000610b67610b60610cd3565b8484610ea6565b6001905092915050565b610b7a826106b1565b610b8b81610b86610cd3565b611127565b610b9583836112a5565b505050565b6000600160008473ffffffffffffffffffffffffffffffffffffffff1673ffffffffffffffffffffffffffffffffffffffff16815260200190815260200160002060008373ffffffffffffffffffffffffffffffffffffffff1673ffffffffffffffffffffffffffffffffffffffff16815260200190815260200160002054905092915050565b7fb19546dff01e856fb3f010c267a7b1c60363cf8a4664e21cc89c26224620214e81565b7f241ecf16d79d0f8dbfb92cbc07fe17840425976cf0667f022fe9877caa831b0881565b60007f01ffc9a7000000000000000000000000000000000000000000000000000000007bffffffffffffffffffffffffffffffffffffffffffffffffffffffff1916827bffffffffffffffffffffffffffffffffffffffffffffffffffffffff1916149050919050565b600033905090565b600073ffffffffffffffffffffffffffffffffffffffff168373ffffffffffffffffffffffffffffffffffffffff161415610d4b576040517f08c379a0000000000000000000000000000000000000000000000000000000008152600401610d4290611da5565b60405180910390fd5b600073ffffffffffffffffffffffffffffffffffffffff168273ffffffffffffffffffffffffffffffffffffffff161415610dbb576040517f08c379a0000000000000000000000000000000000000000000000000000000008152600401610db290611d25565b60405180910390fd5b80600160008573ffffffffffffffffffffffffffffffffffffffff1673ffffffffffffffffffffffffffffffffffffffff16815260200190815260200160002060008473ffffffffffffffffffffffffffffffffffffffff1673ffffffffffffffffffffffffffffffffffffffff168152602001908152602001600020819055508173ffffffffffffffffffffffffffffffffffffffff168373ffffffffffffffffffffffffffffffffffffffff167f8c5be1e5ebec7d5bd14f71427d1e84f3dd0314c0f7b2291e5b200ac8c7c3b92583604051610e999190611e45565b60405180910390a3505050565b600073ffffffffffffffffffffffffffffffffffffffff168373ffffffffffffffffffffffffffffffffffffffff161415610f16576040517f08c379a0000000000000000000000000000000000000000000000000000000008152600401610f0d90611d85565b60405180910390fd5b600073ffffffffffffffffffffffffffffffffffffffff168273ffffffffffffffffffffffffffffffffffffffff161415610f86576040517f08c379a0000000000000000000000000000000000000000000000000000000008152600401610f7d90611d05565b60405180910390fd5b610f918383836114e7565b60008060008573ffffffffffffffffffffffffffffffffffffffff1673ffffffffffffffffffffffffffffffffffffffff16815260200190815260200160002054905081811015611017576040517f08c379a000000000000000000000000000000000000000000000000000000000815260040161100e90611d45565b60405180910390fd5b8181036000808673ffffffffffffffffffffffffffffffffffffffff1673ffffffffffffffffffffffffffffffffffffffff16815260200190815260200160002081905550816000808573ffffffffffffffffffffffffffffffffffffffff1673ffffffffffffffffffffffffffffffffffffffff16815260200190815260200160002060008282546110aa9190611ea2565b925050819055508273ffffffffffffffffffffffffffffffffffffffff168473ffffffffffffffffffffffffffffffffffffffff167fddf252ad1be2c89b69c2b068fc378daa952ba7f163c4a11628f55a4df523b3ef8460405161110e9190611e45565b60405180910390a36111218484846114ec565b50505050565b6111318282610964565b6111c0576111568173ffffffffffffffffffffffffffffffffffffffff1660146114f1565b6111648360001c60206114f1565b604051602001611175929190611c53565b6040516020818303038152906040526040517f08c379a00000000000000000000000000000000000000000000000000000000081526004016111b79190611cc3565b60405180910390fd5b5050565b6111ce8282610964565b6112a15760016005600084815260200190815260200160002060000160008373ffffffffffffffffffffffffffffffffffffffff1673ffffffffffffffffffffffffffffffffffffffff16815260200190815260200160002060006101000a81548160ff021916908315150217905550611246610cd3565b73ffffffffffffffffffffffffffffffffffffffff168173ffffffffffffffffffffffffffffffffffffffff16837f2f8788117e7eff1d82e926ec794901d17c78024a50270940304540a733656f0d60405160405180910390a45b5050565b6112af8282610964565b156113835760006005600084815260200190815260200160002060000160008373ffffffffffffffffffffffffffffffffffffffff1673ffffffffffffffffffffffffffffffffffffffff16815260200190815260200160002060006101000a81548160ff021916908315150217905550611328610cd3565b73ffffffffffffffffffffffffffffffffffffffff168173ffffffffffffffffffffffffffffffffffffffff16837ff6391f5c32d9c69d2a47ea670b442974b53935d1edc7fd64eb21e047a839171b60405160405180910390a45b5050565b600073ffffffffffffffffffffffffffffffffffffffff168273ffffffffffffffffffffffffffffffffffffffff1614156113f7576040517f08c379a00000000000000000000000000000000000000000000000000000000081526004016113ee90611e25565b60405180910390fd5b611403600083836114e7565b80600260008282546114159190611ea2565b92505081905550806000808473ffffffffffffffffffffffffffffffffffffffff1673ffffffffffffffffffffffffffffffffffffffff168152602001908152602001600020600082825461146a9190611ea2565b925050819055508173ffffffffffffffffffffffffffffffffffffffff16600073ffffffffffffffffffffffffffffffffffffffff167fddf252ad1be2c89b69c2b068fc378daa952ba7f163c4a11628f55a4df523b3ef836040516114cf9190611e45565b60405180910390a36114e3600083836114ec565b5050565b505050565b505050565b6060600060028360026115049190611ef8565b61150e9190611ea2565b67ffffffffffffffff81111561154d577f4e487b7100000000000000000000000000000000000000000000000000000000600052604160045260246000fd5b6040519080825280601f01601f19166020018201604052801561157f5781602001600182028036833780820191505090505b5090507f3000000000000000000000000000000000000000000000000000000000000000816000815181106115dd577f4e487b7100000000000000000000000000000000000000000000000000000000600052603260045260246000fd5b60200101907effffffffffffffffffffffffffffffffffffffffffffffffffffffffffffff1916908160001a9053507f780000000000000000000000000000000000000000000000000000000000000081600181518110611667577f4e487b7100000000000000000000000000000000000000000000000000000000600052603260045260246000fd5b60200101907effffffffffffffffffffffffffffffffffffffffffffffffffffffffffffff1916908160001a905350600060018460026116a79190611ef8565b6116b19190611ea2565b90505b600181111561179d577f3031323334353637383961626364656600000000000000000000000000000000600f861660108110611719577f4e487b7100000000000000000000000000000000000000000000000000000000600052603260045260246000fd5b1a60f81b828281518110611756577f4e487b7100000000000000000000000000000000000000000000000000000000600052603260045260246000fd5b60200101907effffffffffffffffffffffffffffffffffffffffffffffffffffffffffffff1916908160001a905350600485901c94508061179690612010565b90506116b4565b50600084146117e1576040517f08c379a00000000000000000000000000000000000000000000000000000000081526004016117d890611ce5565b60405180910390fd5b8091505092915050565b6000813590506117fa81612420565b92915050565b60008135905061180f81612437565b92915050565b6000813590506118248161244e565b92915050565b60008135905061183981612465565b92915050565b60006020828403121561185157600080fd5b600061185f848285016117eb565b91505092915050565b6000806040838503121561187b57600080fd5b6000611889858286016117eb565b925050602061189a858286016117eb565b9150509250929050565b6000806000606084860312156118b957600080fd5b60006118c7868287016117eb565b93505060206118d8868287016117eb565b92505060406118e98682870161182a565b9150509250925092565b6000806040838503121561190657600080fd5b6000611914858286016117eb565b92505060206119258582860161182a565b9150509250929050565b60006020828403121561194157600080fd5b600061194f84828501611800565b91505092915050565b6000806040838503121561196b57600080fd5b600061197985828601611800565b925050602061198a858286016117eb565b9150509250929050565b6000602082840312156119a657600080fd5b60006119b484828501611815565b91505092915050565b6000602082840312156119cf57600080fd5b60006119dd8482850161182a565b91505092915050565b6119ef81611f64565b82525050565b6119fe81611f70565b82525050565b6000611a0f82611e7b565b611a198185611e86565b9350611a29818560208601611fdd565b611a32816120ca565b840191505092915050565b6000611a4882611e7b565b611a528185611e97565b9350611a62818560208601611fdd565b80840191505092915050565b6000611a7b602083611e86565b9150611a86826120db565b602082019050919050565b6000611a9e602383611e86565b9150611aa982612104565b604082019050919050565b6000611ac1602283611e86565b9150611acc82612153565b604082019050919050565b6000611ae4602683611e86565b9150611aef826121a2565b604082019050919050565b6000611b07602883611e86565b9150611b12826121f1565b604082019050919050565b6000611b2a602583611e86565b9150611b3582612240565b604082019050919050565b6000611b4d602483611e86565b9150611b588261228f565b604082019050919050565b6000611b70601783611e97565b9150611b7b826122de565b601782019050919050565b6000611b93602583611e86565b9150611b9e82612307565b604082019050919050565b6000611bb6601183611e97565b9150611bc182612356565b601182019050919050565b6000611bd9602f83611e86565b9150611be48261237f565b604082019050919050565b6000611bfc601683611e86565b9150611c07826123ce565b602082019050919050565b6000611c1f601f83611e86565b9150611c2a826123f7565b602082019050919050565b611c3e81611fc6565b82525050565b611c4d81611fd0565b82525050565b6000611c5e82611b63565b9150611c6a8285611a3d565b9150611c7582611ba9565b9150611c818284611a3d565b91508190509392505050565b6000602082019050611ca260008301846119e6565b92915050565b6000602082019050611cbd60008301846119f5565b92915050565b60006020820190508181036000830152611cdd8184611a04565b905092915050565b60006020820190508181036000830152611cfe81611a6e565b9050919050565b60006020820190508181036000830152611d1e81611a91565b9050919050565b60006020820190508181036000830152611d3e81611ab4565b9050919050565b60006020820190508181036000830152611d5e81611ad7565b9050919050565b60006020820190508181036000830152611d7e81611afa565b9050919050565b60006020820190508181036000830152611d9e81611b1d565b9050919050565b60006020820190508181036000830152611dbe81611b40565b9050919050565b60006020820190508181036000830152611dde81611b86565b9050919050565b60006020820190508181036000830152611dfe81611bcc565b9050919050565b60006020820190508181036000830152611e1e81611bef565b9050919050565b60006020820190508181036000830152611e3e81611c12565b9050919050565b6000602082019050611e5a6000830184611c35565b92915050565b6000602082019050611e756000830184611c44565b92915050565b600081519050919050565b600082825260208201905092915050565b600081905092915050565b6000611ead82611fc6565b9150611eb883611fc6565b9250827fffffffffffffffffffffffffffffffffffffffffffffffffffffffffffffffff03821115611eed57611eec61206c565b5b828201905092915050565b6000611f0382611fc6565b9150611f0e83611fc6565b9250817fffffffffffffffffffffffffffffffffffffffffffffffffffffffffffffffff0483118215151615611f4757611f4661206c565b5b828202905092915050565b6000611f5d82611fa6565b9050919050565b60008115159050919050565b6000819050919050565b60007fffffffff0000000000000000000000000000000000000000000000000000000082169050919050565b600073ffffffffffffffffffffffffffffffffffffffff82169050919050565b6000819050919050565b600060ff82169050919050565b60005b83811015611ffb578082015181840152602081019050611fe0565b8381111561200a576000848401525b50505050565b600061201b82611fc6565b9150600082141561202f5761202e61206c565b5b600182039050919050565b6000600282049050600182168061205257607f821691505b602082108114156120665761206561209b565b5b50919050565b7f4e487b7100000000000000000000000000000000000000000000000000000000600052601160045260246000fd5b7f4e487b7100000000000000000000000000000000000000000000000000000000600052602260045260246000fd5b6000601f19601f8301169050919050565b7f537472696e67733a20686578206c656e67746820696e73756666696369656e74600082015250565b7f45524332303a207472616e7366657220746f20746865207a65726f206164647260008201527f6573730000000000000000000000000000000000000000000000000000000000602082015250565b7f45524332303a20617070726f766520746f20746865207a65726f20616464726560008201527f7373000000000000000000000000000000000000000000000000000000000000602082015250565b7f45524332303a207472616e7366657220616d6f756e742065786365656473206260008201527f616c616e63650000000000000000000000000000000000000000000000000000602082015250565b7f45524332303a207472616e7366657220616d6f756e742065786365656473206160008201527f6c6c6f77616e6365000000000000000000000000000000000000000000000000602082015250565b7f45524332303a207472616e736665722066726f6d20746865207a65726f20616460008201527f6472657373000000000000000000000000000000000000000000000000000000602082015250565b7f45524332303a20617070726f76652066726f6d20746865207a65726f2061646460008201527f7265737300000000000000000000000000000000000000000000000000000000602082015250565b7f416363657373436f6e74726f6c3a206163636f756e7420000000000000000000600082015250565b7f45524332303a2064656372656173656420616c6c6f77616e63652062656c6f7760008201527f207a65726f000000000000000000000000000000000000000000000000000000602082015250565b7f206973206d697373696e6720726f6c6520000000000000000000000000000000600082015250565b7f416363657373436f6e74726f6c3a2063616e206f6e6c792072656e6f756e636560008201527f20726f6c657320666f722073656c660000000000000000000000000000000000602082015250565b7f43616c6c6572206973206e6f7420616e206f776e657200000000000000000000600082015250565b7f45524332303a206d696e7420746f20746865207a65726f206164647265737300600082015250565b61242981611f52565b811461243457600080fd5b50565b61244081611f70565b811461244b57600080fd5b50565b61245781611f7a565b811461246257600080fd5b50565b61246e81611fc6565b811461247957600080fd5b5056fea2646970667358221220b9cf149c97e943f15c4fd58ca8ef4ca896d83792b8726facfb4c5b74a464fb6e64736f6c63430008040033",
  "linkReferences": {},
  "deployedLinkReferences": {}
}